:1000000000400120910100007F03000081030000F7
:100010008303000085030000870300000000000048
:100020000000000000000000000000008903000044
:100030008B030000000000008D0300008F03000010
:100040009103000093030000950300009703000054
:10005000990300009B0300009D0300009F03000024
:10006000A1030000A3030000B1090000CD090000B6
:10007000A9030000AB030000AD030000AF030000C4
:10008000B1030000B3030000B5030000890A0000BB
:10009000B9030000BB030000BD030000BF03000064
:1000A000C1030000C3030000C5030000C703000034
:1000B000C9030000CB030000CD030000CF03000004
:1000C000D1030000D3030000D5030000D7030000D4
:1000D000D9030000DB030000DD030000DF030000A4
:1000E000E1030000E3030000E5030000E703000074
:1000F000E9030000EB030000ED030000EF03000044
:10010000F1030000F3030000F5030000F703000013
:10011000F9030000FB030000FD030000FF030000E3
:1001200001040000030400000504000007040000AF
:10013000090400000B0400000D0400000F0400007F
:10014000110400001304000015040000170400004F
:10015000190400001B0400001D0400001F0400001F
:1001600021040000230400002504000027040000EF
:10017000290400002B0400002D0400002F040000BF
:100180003104000033040000000000000000000003
:100190004FF0000BDFF8BE020068DFF8B612096806
:1001A00001F0030100F01C00142801D14BF0020BF8
:1001B000002901D04BF0010BBBF1000F05D0A7487F
:1001C000A749DFF8722200F09FF8A64880470BF09D
:1001D000020ABAF1000F0CD0DFF86E02DFF86E12DF
:1001E00002680B680FB44FF000024FF0FF0302608B
:1001F0000B609D484FF000024FF00103022808D128
:10020000DFF83A120A60DFF83E120A60DFF83212B5
:100210000B60012808D1DFF82A120A60DFF82612E5
:100220000A60DFF81A120B609048002809D1904844
:100230009049914A00F030F890489149914A00F075
:100240002BF891489149924A00F026F8914892493A
:10025000DFF8E22100F058F8BBF1000F10D08F4812
:100260008F49DFF8D62100F04FF80BF0020ABAF1FF
:10027000000F05D00FBC02600B6000BFAFF3008021
:10028000DFF820020FF2030E00474FF000004FF09E
:100290000001DFF814F2FEE72DE9F841884225D08D
:1002A000B2EB010200D5FEE740EA010313F00303BD
:1002B00002D000F01DF819E04FF000039046121133
:1002C000F7D09A421CBFF0C8F0C103F10103F8D186
:1002D00008F00F08B8F1000F08D004780C7000F196
:1002E000010001F10101B8F10108F6D1BDE8F88182
:1002F00008B54FF0000303780B7000F1010001F125
:100300000101013AF7D108BD884237D000F0030659
:10031000002E14D04FF00405A5EB06044FF008079B
:1003200007FB06F8914669FA08F9002C07D080F817
:10033000009069FA07F900F10100013CF5E74FF080
:1003400000060F46091A88460911914614461546BB
:10035000B14206D018BFA0E8340206F10106B1424E
:10036000F8D108F00F08B8F1000F07D002704FEA7B
:10037000322200F10100B8F10108F4E77047FEE70E
:10038000FEE7FEE7FEE7FEE7FEE7FEE7FEE7FEE745
:10039000FEE7FEE7FEE7FEE7FEE7FEE7FEE7FEE735
:1003A000FEE7FEE7FEE7FEE7FEE7FEE7FEE7FEE725
:1003B000FEE7FEE7FEE7FEE7FEE7FEE7FEE7FEE715
:1003C000FEE7FEE7FEE7FEE7FEE7FEE7FEE7FEE705
:1003D000FEE7FEE7FEE7FEE7FEE7FEE7FEE7FEE7F5
:1003E000FEE7FEE7FEE7FEE7FEE7FEE7FEE7FEE7E5
:1003F000FEE7FEE7FEE7FEE7FEE7FEE7FEE7FEE7D5
:10040000FEE7FEE7FEE7FEE7FEE7FEE7FEE7FEE7C4
:10041000FEE7FEE7FEE7FEE7FEE7FEE7FEE7FEE7B4
:10042000FEE7FEE7FEE7FEE7FEE7FEE7FEE7FEE7A4
:10043000FEE7FEE7704700000000A2A2A2A2008033
:100440000340088003401080034030800340348024
:1004500003403880034018080240000000300120AB
:10046000004001204D0D00000000000000000000D1
:10047000000000000000000090010000B004000037
:10048000B0040000C0120000C012000000000120F3
:100490002000012020000120F0000120F0000120B8
:1004A00000300120410F00005D0E00000000000040
:1004B0000348044B834202D0034B03B118477047F3
:1004C000200001202000012000000000054806490E
:1004D000091A891001EBD171491002D0034B03B105
:1004E0001847704720000120200001200000000074
:1004F00010B5064C237843B9FFF7DAFF044B13B16C
:100500000448AFF300800123237010BD20000120B8
:10051000000000009812000008B5054B1BB105490A
:100520000548AFF30080BDE80840FFF7CFBF00BF2C
:10053000000000002400012098120000054B8900F3
:1005400003EA401300F070401843012301F10071E9
:1005500043507047E0FFFF01054B890003EA401359
:1005600000F070401843002301F1007143507047C0
:10057000E0FFFF01054B890003EA401300F07040E3
:10058000184301F100714058C0B27047E0FFFF010D
:100590002DE9F0416B4F0446B8420D46164600F077
:1005A000BE80694B984200D000BE684B4FF400619A
:1005B00023600B232371664B9A6C42F480729A6419
:1005C000644AC2F880119A6C22F480729A64002204
:1005D00020680121027100F8082FFFF7AFFF2068A3
:1005E00002210830FFF7AAFF206811460830FFF704
:1005F000A5FF206804211030FFF7AEFF2068052119
:100600001030FFF7A9FF206801213430FFF7A4FF65
:10061000206811463430FFF79FFF206801213830F1
:10062000FFF79AFF206805213030FFF795FF20681B
:1006300006213030FFF790FF206807213030FFF7A8
:100640008BFF206803213830FFF786FF2368BC4208
:1006500083F8442083F8482083F84C2017D03A4B85
:100660009C4214D000BE23681E730023A56026732D
:10067000C4E90433A361C4E90833E361C4E90A337C
:10068000C4E90C33C4E90E336373BDE8F081A5609F
:1006900000F07AFBBC420CBF2F4B304B1A68D200E3
:1006A000B2FBF5F2D309B3F5803FDBD22068012B12
:1006B00000F10C00DFB210D80721FFF73FFF002345
:1006C00020680721037100F80C7BFFF745FF2068C5
:1006D00007213030FFF740FFC5E79B01C3EB520312
:1006E00002F07F080721A8EB0308FFF727FF206827
:1006F000C2F3C7320271072100F80C7BFFF72CFF11
:10070000206807213030FFF719FFB8F1FF0F00D93B
:1007100000BE22685FFA88F382F83C30A3E74FF00E
:10072000804303600A234FF480610371084B9A6C85
:1007300042F080029A64074AC2F880119A6C22F053
:10074000800243E7A4000120640001200000014072
:100750000080034000E100E01000012014000120AF
:1007600010B504460068037A03F00F030C2B5FD822
:10077000DFE803F0075E1120165E1B5E5E5E5E5EC4
:100780001600A36A03B900BEA36A002B51D020460D
:10079000BDE810401847636A03B900BE636AF4E716
:1007A000236A03B900BE236AEFE7E36903B900BE19
:1007B000E369EAE700212830FFF7DCFE30B1E36AA5
:1007C00003B900BEE36A0BB12046984720680121B7
:1007D0002830FFF7CFFE30B1236B03B900BE236B87
:1007E0000BB120469847206802212830FFF7C2FE4F
:1007F00030B1636B03B900BE636B0BB12046984701
:10080000206803212830FFF7B5FE30B1A36B03B990
:1008100000BEA36B0BB12046984720680421283006
:10082000FFF7A8FE28B1E36B03B900BEE36BACE7AA
:1008300000BE10BD1C4BF0B4984203D01B4A90423E
:1008400000D000BE026902B900BE426902B900BE12
:10085000984202D0154B984224D1066916B34169DB
:1008600001B30468427B237DDBB21A439B064273CB
:1008700009D48369994215D1002301214361201DC8
:10088000F0BCFFF769BE83690025CB1A102B28BF87
:1008900010239D428269ECD0B75C0132277001358C
:1008A0008261F6E7F0BC7047A400012064000120DB
:1008B0000E4B10B59842044603D00D4B984200D021
:1008C00000BE2046FFF764FE206803213030FFF7AA
:1008D00043FE206802213430FFF73EFE20680021ED
:1008E0003830FFF739FE034B636210BDA4000120CE
:1008F0006400012035080000174BF0B5984203D082
:10090000164CA04200D000BE01B900BE02B900BE24
:10091000984202D0114B98421CD1D9B1D2B10024D7
:100920000668457B337DDBB21D439B06FAD5102A52
:1009300001EB0407457313463D4628BF102315F805
:1009400001CB86F800C0A5EB070C6345F7D8D21A97
:100950001C44E6D1F0BD00BFA400012064000120CA
:10096000114B70B598421AD0104B984200D000BE7F
:10097000B9B1984216D100230A789AB10668457B2E
:10098000347DE4B22543A406FAD5457303F110047F
:1009900032700133CA5C2AB1A342F9D1EDE70029D4
:1009A000E9D100BE70BD00BFA40001206400012099
:1009B000684620F007018D4601B50348FFF7D0FED9
:1009C000BDE8014085467047A4000120684620F03C
:1009D00007018D4601B50348FFF7C2FEBDE801409F
:1009E000854670476400012010B5064C0146236817
:1009F00033B1054A106898470023044A23601370F6
:100A000010BD00BF440001205400012061000120FE
:100A10000C4B13B51A6822F004021A605A6802F0EF
:100A2000010201920022019C0CB18A4202D11046BF
:100A300002B010BD845C01321C615C6804F00104EA
:100A40000194F0E700600140024B1A680AB11B688C
:100A5000184770473C00012008B5084B1B785BB174
:100A6000074B1888FFF7C0FF064B1A6842F00102D7
:100A70001A601A68D207FCD408BD00BF61000120CB
:100A80005C00012000600140F8B5784B5D689A6811
:100A9000EDB21540AA076AD5754C1B692278D8B209
:100AA000052A00F28480DFE802F00360601C2F5901
:100AB0001B045CD5F12802D0FFF7C6FF57E00026E3
:100AC0006C4B6D4A1E8011681A8892B288541A883D
:100AD000013292B21A801B889BB2CE540423237039
:100AE00045E01F0443D5654B1B789842E4D10023B1
:100AF000604A61491380138809689BB2C8541388FF
:100B000001339BB21380E9E71E04D5D45A4B5949EF
:100B10001A680B88134413F8013CF12B0B460AD1D9
:100B20000B889BB2D0540B881A4412F8010CFFF7C3
:100B30008BFF0023D3E7524E098836888E4206D9B0
:100B4000198889B250541A88013292B21A801A88D0
:100B500096420CD11888FFF747FFEAE71904ABD497
:100B6000454B1B6858700220F5E71A04A4D4EB0724
:100B70001CD53F4C23782546022B22D0052B3ED096
:100B8000012B68D13F4D2B889BB2002B32D03E4FBA
:100B900029883E683046FFF73BFF2B88984208D2F1
:100BA0002B8806441B1A9BB22B803E60F8BD0020A8
:100BB000D1E700232B80354B1B68CBB10223237078
:100BC000F4E7324D2B68ABB1314E29683068FFF73E
:100BD0001FFF2B68984206D22B681B1A2B603368C4
:100BE00003443360E2E7214A936823F001039360F2
:100BF0000323E4E700BEBDE8F840FFF72DBF234C18
:100C0000236873B9234B1B68ABB121489847206018
:100C1000236833B9154A936823F0010393600323D3
:100C20002B7023685BB9114A936823F0010393602A
:100C300003232B70BAE700BEFFF70EFFF1E7144D58
:100C400021682868FFF7E4FE22682B68121A034423
:100C500022602B60AAE7054A0020936823F0010375
:100C60009360FFF7C1FE0023A9E700BF00600140C9
:100C7000600001205C0001205400012040000120A0
:100C80005E000120420001204C00012048000120AC
:100C90005000012058000120144B10B59A6C01201F
:100CA00042F480129A649A6C114C42F0F0729A6489
:100CB00000221357013203F01F015B099B0003F16F
:100CC000604300FA01F103F56143202AC3F8801064
:100CD000C3F88011EDD1054B9A6C22F0F0729A6442
:100CE0009A6C22F480129A6410BD00BF0080034009
:100CF000201000001F2801D900BE7047024B53F896
:100D000020301960704700BFA00F0000074B084A51
:100D10001860084B1860084B1860084B1A60084BA5
:100D20001860084B1860084B1860704700000120DD
:100D3000D01213001000012014000120180001201F
:100D400004000120080001200C0001204FF60202DF
:100D50000B4BD3F84C1191420BD1D3F8982042F4AD
:100D60008072C3F89820D3F8982022F08062C3F8EC
:100D70009820044A536943F400735361FFF75ABB48
:100D80000080034000ED00E01D4B82B0D3F89820B6
:100D900052012CD4D3F89820D00412D4194B1A4AFB
:100DA0001A4913601A4A13601A4A13601A4A1160EA
:100DB0001A4A13601A4A13601A4B1B4A1A6002B08F
:100DC00070474FF00121194ACDE90012D3F89C2059
:100DD00002A9C2F382120A4412F8082C3AB1012A7D
:100DE0000CBF4FF40040124802B0FFF78FBFD3F89A
:100DF0005031104813F0040F0F4B18BF1846F3E79B
:100E000000800340404B4C0000000120D012130032
:100E1000100001201400012018000120040001200E
:100E2000080001200C000120002D31010202030303
:100E300040420F0040787D0180F0FA02002307B5A0
:100E40008DF8040001A904488DF80530FFF788FDEE
:100E500003B05DF804FB00BFA400012030B5A3B0CF
:100E600084222C4901A800F08FF8FFF715FF052117
:100E70000020FFF73FFF0022274B4FF4E131C3F87A
:100E8000882026480322FFF713FD25492348FFF752
:100E900067FD8422214801A9FFF72EFD214A22483F
:100EA00002F18F4352F8041B03F5FD035B008CB283
:100EB00082424FEA11411C605960F1D11B49174829
:100EC000FFF74EFD1A4B174903F13F4253F8040B4D
:100ED00002F57F028B421060F6D116490F48FFF7EA
:100EE0003FFD1924144D2B68DB090093009B6BB95F
:100EF0002E20FFF7A3FF013CF5D110490748FFF76B
:100F00002FFD0122044BC3F88820FEE7009B013B24
:100F1000EBE700BF1412000000300140A4000120E4
:100F20009310000000800160008801604010000004
:100F30000000016057100000000001207210000046
:100F400070B500250C4E0D4CA41BA410A54209D170
:100F500000F0A2F900250A4E0A4CA41BA410A542D9
:100F600005D170BD56F8253098470135EEE756F8A3
:100F7000253098470135F2E7B0120000B0120000AA
:100F8000B0120000B412000010B5431E0A44914292
:100F900000D110BD11F8014B03F8014FF7E7000035
:100FA0000030014004300140083001400C30014065
:100FB0001030014014300140183001401C30014015
:100FC0002030014024300140283001402C300140C5
:100FD0003030014034300140383001403C30014075
:100FE0004030014044300140483001404C30014025
:100FF0005030014054300140583001405C300140D5
:101000006030014064300140683001406C30014084
:101010007030014074300140783001407C30014034
:1010200032333435363738393A3B3C3D3E3F404128
:1010300042434445464748494A4B4C4D4E4F505118
:10104000466162726963204C5352414D206C6F615E
:101050006465640A0D0000654E564D20636F70791B
:1010600020746F20655352414D20646F6E650A0DE8
:101070000000202D3E20524953432D5620536F66C9
:10108000744350552069732072756E6E696E670ADD
:101090000D00000A0D0A0D202A2A20202020202AD7
:1010A0002A202A2A2A2A2A2A2A20202A2A2A2A2ABE
:1010B0002A202A2A2A2A2A202020202A2A2A2A20CC
:1010C0002020202A2A2A2A2A202A2A2A2A2A2A20B2
:1010D0002A2A20202020202A2A202A2A2A2A2A2AAC
:1010E0002A0A0D202A202A2020202A202A202020F7
:1010F000202A202020202A202020202020202A20D2
:101100002020202A20202A202020202A20202A20B7
:1011100020202020202A2020202020202A202A20B1
:1011200020202A202A202020202A2020200A0D20CA
:101130002A20202A202A20202A202020202A20207D
:1011400020202A202020202020202A2A2A2A2A2063
:1011500020202A202020202A2020202A2A2A2A2053
:10116000202A2A2A2A2A2A202A20202A202A202025
:101170002A202020202A2020200A0D202A2020207A
:101180002A2020202A202020202A202020202A2037
:101190002020202020202A202020202A20202A2031
:1011A0002020202A202020202020202A202A202021
:1011B000202020202A2020202A2020202A20202011
:1011C000202A2020200A0D202A2020202020202034
:1011D0002A202A2A2A2A2A2A2A20202A2A2A2A2A8D
:1011E0002A202A202020202A2020202A2A2A2A20B9
:1011F00020202A2A2A2A2A20202A2A2A2A2A2A2081
:101200002A202020202020202A202A2A2A2A2A2A8E
:101210002A0A0D000A0D524953432D5620536F667A
:101220007443505520436F6E7465737420323031AF
:101230003820626F6F746C6F6164657220666F72C4
:10124000206269745F72697363760A0D4372656424
:10125000697420746F20416E747469204C756B61E1
:1012600074730A0D5573696E6720436F72746578E5
:101270002D4D3320617373697374656420626F6FE1
:101280007420636F6E636570740A0D5265763A2040
:10129000302E302E320A0D00F8B500BFF8BC08BC65
:1012A0009E467047F8B500BFF8BC08BC9E46704724
:1012B00019050000F104000000000000000000001B
:1012C000404B4C00404B4C00404B4C00002D31013A
:1012D000404B4C00404B4C00D0121300000000006B
:040000030000019167
:00000001FF
